{
  "contractName": "ExerciseC6B",
  "abi": [
    {
      "inputs": [],
      "payable": false,
      "stateMutability": "nonpayable",
      "type": "constructor"
    },
    {
      "constant": false,
      "inputs": [
        {
          "name": "amount",
          "type": "uint256"
        }
      ],
      "name": "safeWithdraw",
      "outputs": [],
      "payable": false,
      "stateMutability": "nonpayable",
      "type": "function"
    }
  ],
  "bytecode": "0x608060405242600155600160025534801561001957600080fd5b50336000806101000a81548173ffffffffffffffffffffffffffffffffffffffff021916908373ffffffffffffffffffffffffffffffffffffffff160217905550610488806100696000396000f300608060405260043610610041576000357c0100000000000000000000000000000000000000000000000000000000900463ffffffff168063b0fd035b14610046575b600080fd5b34801561005257600080fd5b5061007160048036038101908080359060200190929190505050610073565b005b600061070860015442101515156100f2576040517f08c379a00000000000000000000000000000000000000000000000000000000081526004018080602001828103825260148152602001807f52617465206c696d69742061637469766174656400000000000000000000000081525060200191505060405180910390fd5b6101078160015461042790919063ffffffff16565b6001819055506000610125600160025461042790919063ffffffff16565b60028190555060025490503273ffffffffffffffffffffffffffffffffffffffff163373ffffffffffffffffffffffffffffffffffffffff161415156101d3576040517f08c379a00000000000000000000000000000000000000000000000000000000081526004018080602001828103825260198152602001807f436f6e74726163747320617265206e6f7420616c6c6f7765640000000000000081525060200191505060405180910390fd5b83600360003373ffffffffffffffffffffffffffffffffffffffff1673ffffffffffffffffffffffffffffffffffffffff168152602001908152602001600020541015151561028a576040517f08c379a00000000000000000000000000000000000000000000000000000000081526004018080602001828103825260128152602001807f496e73756666696369656e742066756e6473000000000000000000000000000081525060200191505060405180910390fd5b600360003373ffffffffffffffffffffffffffffffffffffffff1673ffffffffffffffffffffffffffffffffffffffff16815260200190815260200160002054925061031e84600360003373ffffffffffffffffffffffffffffffffffffffff1673ffffffffffffffffffffffffffffffffffffffff1681526020019081526020016000205461044390919063ffffffff16565b600360003373ffffffffffffffffffffffffffffffffffffffff1673ffffffffffffffffffffffffffffffffffffffff168152602001908152602001600020819055503373ffffffffffffffffffffffffffffffffffffffff166108fc849081150290604051600060405180830381858888f193505050501580156103a7573d6000803e3d6000fd5b5060025481141515610421576040517f08c379a00000000000000000000000000000000000000000000000000000000081526004018080602001828103825260138152602001807f54686174206973206e6f7420616c6c6f7765640000000000000000000000000081525060200191505060405180910390fd5b50505050565b6000818301905082811015151561043a57fe5b80905092915050565b600082821115151561045157fe5b8183039050929150505600a165627a7a72305820d6fc76f9b52a5c076f884785d4aadf645837ea34b118967b62932ec3ffc520b00029",
  "source": "pragma solidity ^0.4.25;\r\n\r\n// It's important to avoid vulnerabilities due to numeric overflow bugs\r\n// OpenZeppelin's SafeMath library, when used correctly, protects agains such bugs\r\n// More info: https://www.nccgroup.trust/us/about-us/newsroom-and-events/blog/2018/november/smart-contract-insecurity-bad-arithmetic/\r\n\r\nimport \"../node_modules/openzeppelin-solidity/contracts/math/SafeMath.sol\";\r\n\r\n\r\ncontract ExerciseC6B {\r\n    using SafeMath for uint256; // Allow SafeMath functions to be called for all uint256 types (similar to \"prototype\" in Javascript)\r\n\r\n    /********************************************************************************************/\r\n    /*                                       DATA VARIABLES                                     */\r\n    /********************************************************************************************/\r\n\r\n\r\n    address private contractOwner;                  // Account used to deploy contract\r\n    uint256 private enabled = block.timestamp;\r\n    uint256 private counter = 1;\r\n    mapping(address => uint256) private sales;\r\n\r\n    constructor\r\n                (\r\n                )\r\n                public \r\n    {\r\n        contractOwner = msg.sender;\r\n    }\r\n   \r\n    /********************************************************************************************/\r\n    /*                                       FUNCTION MODIFIERS                                 */\r\n    /********************************************************************************************/\r\n\r\n    // Modifiers help avoid duplication of code. They are typically used to validate something\r\n    // before a function is allowed to be executed.\r\n\r\n    /**\r\n    * @dev Modifier that requires the \"ContractOwner\" account to be the function caller\r\n    */\r\n    modifier requireContractOwner()\r\n    {\r\n        require(msg.sender == contractOwner, \"Caller is not contract owner\");\r\n        _;\r\n    }\r\n\r\n    modifier rateLimit(uint256 time) {\r\n        require(block.timestamp >= enabled, \"Rate limit activated\");\r\n        enabled = enabled.add(time);\r\n        _;\r\n    }\r\n\r\n    modifier entrancyGuard() {\r\n        counter = counter.add(1);\r\n        uint256 guard = counter;\r\n        _;\r\n        require(guard == counter, \"That is not allowed\");\r\n    }\r\n\r\n    /********************************************************************************************/\r\n    /*                                     SMART CONTRACT FUNCTIONS                             */\r\n    /********************************************************************************************/\r\n\r\n    function safeWithdraw(uint256 amount) external rateLimit(30 minutes) entrancyGuard {\r\n        require(msg.sender == tx.origin, \"Contracts are not allowed\");\r\n        require(sales[msg.sender] >= amount, \"Insufficient funds\");\r\n        uint256 saleAmount = sales[msg.sender];\r\n        sales[msg.sender] = sales[msg.sender].sub(amount);\r\n        msg.sender.transfer(saleAmount);\r\n    }\r\n    \r\n}\r\n\r\n",
  "sourcePath": "C:\\Users\\jgtec\\.jg\\BCND-C6-Exercises\\contracts\\ExerciseC6B.sol",
  "compiler": {
    "name": "solc",
    "version": "0.4.26+commit.4563c3fc.Emscripten.clang"
  },
  "schemaVersion": "3.4.3",
  "updatedAt": "2021-09-01T02:55:32.818Z",
  "devdoc": {
    "methods": {}
  },
  "userdoc": {
    "methods": {
      "safeWithdraw(uint256)": {
        "notice": "*****************************************************************************************"
      }
    }
  }
}